{
    "_format": "hh-sol-artifact-1",
    "contractName": "RoboPunkNFT",
    "sourceName": "contracts/RoboPunkNFT.sol",
    "abi": [
        {
            "inputs": [],
            "stateMutability": "payable",
            "type": "constructor"
        },
        {
            "anonymous": false,
            "inputs": [
                {
                    "indexed": true,
                    "internalType": "address",
                    "name": "owner",
                    "type": "address"
                },
                {
                    "indexed": true,
                    "internalType": "address",
                    "name": "approved",
                    "type": "address"
                },
                {
                    "indexed": true,
                    "internalType": "uint256",
                    "name": "tokenId",
                    "type": "uint256"
                }
            ],
            "name": "Approval",
            "type": "event"
        },
        {
            "anonymous": false,
            "inputs": [
                {
                    "indexed": true,
                    "internalType": "address",
                    "name": "owner",
                    "type": "address"
                },
                {
                    "indexed": true,
                    "internalType": "address",
                    "name": "operator",
                    "type": "address"
                },
                {
                    "indexed": false,
                    "internalType": "bool",
                    "name": "approved",
                    "type": "bool"
                }
            ],
            "name": "ApprovalForAll",
            "type": "event"
        },
        {
            "anonymous": false,
            "inputs": [
                {
                    "indexed": true,
                    "internalType": "address",
                    "name": "previousOwner",
                    "type": "address"
                },
                {
                    "indexed": true,
                    "internalType": "address",
                    "name": "newOwner",
                    "type": "address"
                }
            ],
            "name": "OwnershipTransferred",
            "type": "event"
        },
        {
            "anonymous": false,
            "inputs": [
                {
                    "indexed": true,
                    "internalType": "address",
                    "name": "from",
                    "type": "address"
                },
                {
                    "indexed": true,
                    "internalType": "address",
                    "name": "to",
                    "type": "address"
                },
                {
                    "indexed": true,
                    "internalType": "uint256",
                    "name": "tokenId",
                    "type": "uint256"
                }
            ],
            "name": "Transfer",
            "type": "event"
        },
        {
            "inputs": [
                {
                    "internalType": "address",
                    "name": "to",
                    "type": "address"
                },
                {
                    "internalType": "uint256",
                    "name": "tokenId",
                    "type": "uint256"
                }
            ],
            "name": "approve",
            "outputs": [],
            "stateMutability": "nonpayable",
            "type": "function"
        },
        {
            "inputs": [
                {
                    "internalType": "address",
                    "name": "owner",
                    "type": "address"
                }
            ],
            "name": "balanceOf",
            "outputs": [
                {
                    "internalType": "uint256",
                    "name": "",
                    "type": "uint256"
                }
            ],
            "stateMutability": "view",
            "type": "function"
        },
        {
            "inputs": [
                {
                    "internalType": "uint256",
                    "name": "tokenId",
                    "type": "uint256"
                }
            ],
            "name": "getApproved",
            "outputs": [
                {
                    "internalType": "address",
                    "name": "",
                    "type": "address"
                }
            ],
            "stateMutability": "view",
            "type": "function"
        },
        {
            "inputs": [
                {
                    "internalType": "address",
                    "name": "owner",
                    "type": "address"
                },
                {
                    "internalType": "address",
                    "name": "operator",
                    "type": "address"
                }
            ],
            "name": "isApprovedForAll",
            "outputs": [
                {
                    "internalType": "bool",
                    "name": "",
                    "type": "bool"
                }
            ],
            "stateMutability": "view",
            "type": "function"
        },
        {
            "inputs": [],
            "name": "isPublicMintEnabled",
            "outputs": [
                {
                    "internalType": "bool",
                    "name": "",
                    "type": "bool"
                }
            ],
            "stateMutability": "view",
            "type": "function"
        },
        {
            "inputs": [],
            "name": "maxPerWallet",
            "outputs": [
                {
                    "internalType": "uint256",
                    "name": "",
                    "type": "uint256"
                }
            ],
            "stateMutability": "view",
            "type": "function"
        },
        {
            "inputs": [],
            "name": "maxSupply",
            "outputs": [
                {
                    "internalType": "uint256",
                    "name": "",
                    "type": "uint256"
                }
            ],
            "stateMutability": "view",
            "type": "function"
        },
        {
            "inputs": [],
            "name": "minPrice",
            "outputs": [
                {
                    "internalType": "uint256",
                    "name": "",
                    "type": "uint256"
                }
            ],
            "stateMutability": "view",
            "type": "function"
        },
        {
            "inputs": [
                {
                    "internalType": "uint256",
                    "name": "quantity_",
                    "type": "uint256"
                }
            ],
            "name": "mint",
            "outputs": [],
            "stateMutability": "payable",
            "type": "function"
        },
        {
            "inputs": [],
            "name": "name",
            "outputs": [
                {
                    "internalType": "string",
                    "name": "",
                    "type": "string"
                }
            ],
            "stateMutability": "view",
            "type": "function"
        },
        {
            "inputs": [],
            "name": "owner",
            "outputs": [
                {
                    "internalType": "address",
                    "name": "",
                    "type": "address"
                }
            ],
            "stateMutability": "view",
            "type": "function"
        },
        {
            "inputs": [
                {
                    "internalType": "uint256",
                    "name": "tokenId",
                    "type": "uint256"
                }
            ],
            "name": "ownerOf",
            "outputs": [
                {
                    "internalType": "address",
                    "name": "",
                    "type": "address"
                }
            ],
            "stateMutability": "view",
            "type": "function"
        },
        {
            "inputs": [],
            "name": "renounceOwnership",
            "outputs": [],
            "stateMutability": "nonpayable",
            "type": "function"
        },
        {
            "inputs": [
                {
                    "internalType": "address",
                    "name": "from",
                    "type": "address"
                },
                {
                    "internalType": "address",
                    "name": "to",
                    "type": "address"
                },
                {
                    "internalType": "uint256",
                    "name": "tokenId",
                    "type": "uint256"
                }
            ],
            "name": "safeTransferFrom",
            "outputs": [],
            "stateMutability": "nonpayable",
            "type": "function"
        },
        {
            "inputs": [
                {
                    "internalType": "address",
                    "name": "from",
                    "type": "address"
                },
                {
                    "internalType": "address",
                    "name": "to",
                    "type": "address"
                },
                {
                    "internalType": "uint256",
                    "name": "tokenId",
                    "type": "uint256"
                },
                {
                    "internalType": "bytes",
                    "name": "data",
                    "type": "bytes"
                }
            ],
            "name": "safeTransferFrom",
            "outputs": [],
            "stateMutability": "nonpayable",
            "type": "function"
        },
        {
            "inputs": [
                {
                    "internalType": "address",
                    "name": "operator",
                    "type": "address"
                },
                {
                    "internalType": "bool",
                    "name": "approved",
                    "type": "bool"
                }
            ],
            "name": "setApprovalForAll",
            "outputs": [],
            "stateMutability": "nonpayable",
            "type": "function"
        },
        {
            "inputs": [
                {
                    "internalType": "string",
                    "name": "baseTokenUri_",
                    "type": "string"
                }
            ],
            "name": "setBaseTokenUri",
            "outputs": [],
            "stateMutability": "nonpayable",
            "type": "function"
        },
        {
            "inputs": [
                {
                    "internalType": "bool",
                    "name": "isPublicMintEnabled_",
                    "type": "bool"
                }
            ],
            "name": "setIsPublicMintEnabled",
            "outputs": [],
            "stateMutability": "nonpayable",
            "type": "function"
        },
        {
            "inputs": [
                {
                    "internalType": "bytes4",
                    "name": "interfaceId",
                    "type": "bytes4"
                }
            ],
            "name": "supportsInterface",
            "outputs": [
                {
                    "internalType": "bool",
                    "name": "",
                    "type": "bool"
                }
            ],
            "stateMutability": "view",
            "type": "function"
        },
        {
            "inputs": [],
            "name": "symbol",
            "outputs": [
                {
                    "internalType": "string",
                    "name": "",
                    "type": "string"
                }
            ],
            "stateMutability": "view",
            "type": "function"
        },
        {
            "inputs": [
                {
                    "internalType": "uint256",
                    "name": "tokenId",
                    "type": "uint256"
                }
            ],
            "name": "tokenURI",
            "outputs": [
                {
                    "internalType": "string",
                    "name": "",
                    "type": "string"
                }
            ],
            "stateMutability": "view",
            "type": "function"
        },
        {
            "inputs": [
                {
                    "internalType": "uint256",
                    "name": "tokenID_",
                    "type": "uint256"
                }
            ],
            "name": "tokenUri",
            "outputs": [
                {
                    "internalType": "string",
                    "name": "",
                    "type": "string"
                }
            ],
            "stateMutability": "view",
            "type": "function"
        },
        {
            "inputs": [],
            "name": "totalSupply",
            "outputs": [
                {
                    "internalType": "uint256",
                    "name": "",
                    "type": "uint256"
                }
            ],
            "stateMutability": "view",
            "type": "function"
        },
        {
            "inputs": [
                {
                    "internalType": "address",
                    "name": "from",
                    "type": "address"
                },
                {
                    "internalType": "address",
                    "name": "to",
                    "type": "address"
                },
                {
                    "internalType": "uint256",
                    "name": "tokenId",
                    "type": "uint256"
                }
            ],
            "name": "transferFrom",
            "outputs": [],
            "stateMutability": "nonpayable",
            "type": "function"
        },
        {
            "inputs": [
                {
                    "internalType": "address",
                    "name": "newOwner",
                    "type": "address"
                }
            ],
            "name": "transferOwnership",
            "outputs": [],
            "stateMutability": "nonpayable",
            "type": "function"
        },
        {
            "inputs": [
                {
                    "internalType": "address",
                    "name": "",
                    "type": "address"
                }
            ],
            "name": "walletMints",
            "outputs": [
                {
                    "internalType": "uint256",
                    "name": "",
                    "type": "uint256"
                }
            ],
            "stateMutability": "view",
            "type": "function"
        },
        {
            "inputs": [],
            "name": "withdraw",
            "outputs": [],
            "stateMutability": "nonpayable",
            "type": "function"
        },
        {
            "inputs": [],
            "name": "withdrawWallet",
            "outputs": [
                {
                    "internalType": "address payable",
                    "name": "",
                    "type": "address"
                }
            ],
            "stateMutability": "view",
            "type": "function"
        }
    ],
    "bytecode": "0x60806040526040518060400160405280600b81526020017f526f626f50756e744e46540000000000000000000000000000000000000000008152506040518060400160405280600281526020017f525000000000000000000000000000000000000000000000000000000000000081525081600090816200008191906200042b565b5080600190816200009391906200042b565b505050620000b6620000aa620000e360201b60201c565b620000eb60201b60201c565b66470de4df82000060078190555060006008819055506103e86009819055506003600a8190555062000512565b600033905090565b6000600660009054906101000a900473ffffffffffffffffffffffffffffffffffffffff16905081600660006101000a81548173ffffffffffffffffffffffffffffffffffffffff021916908373ffffffffffffffffffffffffffffffffffffffff1602179055508173ffffffffffffffffffffffffffffffffffffffff168173ffffffffffffffffffffffffffffffffffffffff167f8be0079c531659141344cd1fd0a4f28419497f9722a3daafe3b4186f6b6457e060405160405180910390a35050565b600081519050919050565b7f4e487b7100000000000000000000000000000000000000000000000000000000600052604160045260246000fd5b7f4e487b7100000000000000000000000000000000000000000000000000000000600052602260045260246000fd5b600060028204905060018216806200023357607f821691505b602082108103620002495762000248620001eb565b5b50919050565b60008190508160005260206000209050919050565b60006020601f8301049050919050565b600082821b905092915050565b600060088302620002b37fffffffffffffffffffffffffffffffffffffffffffffffffffffffffffffffff8262000274565b620002bf868362000274565b95508019841693508086168417925050509392505050565b6000819050919050565b6000819050919050565b60006200030c620003066200030084620002d7565b620002e1565b620002d7565b9050919050565b6000819050919050565b6200032883620002eb565b62000340620003378262000313565b84845462000281565b825550505050565b600090565b6200035762000348565b620003648184846200031d565b505050565b5b818110156200038c57620003806000826200034d565b6001810190506200036a565b5050565b601f821115620003db57620003a5816200024f565b620003b08462000264565b81016020851015620003c0578190505b620003d8620003cf8562000264565b83018262000369565b50505b505050565b600082821c905092915050565b60006200040060001984600802620003e0565b1980831691505092915050565b60006200041b8383620003ed565b9150826002028217905092915050565b6200043682620001b1565b67ffffffffffffffff811115620004525762000451620001bc565b5b6200045e82546200021a565b6200046b82828562000390565b600060209050601f831160018114620004a357600084156200048e578287015190505b6200049a85826200040d565b8655506200050a565b601f198416620004b3866200024f565b60005b82811015620004dd57848901518255600182019150602085019450602081019050620004b6565b86831015620004fd5784890151620004f9601f891682620003ed565b8355505b6001600288020188555050505b505050505050565b61391180620005226000396000f3fe6080604052600436106101b75760003560e01c8063715018a6116100ec578063b88d4fde1161008a578063e45be8eb11610064578063e45be8eb146105eb578063e985e9c514610616578063f0293fd314610653578063f2fde38b14610690576101b7565b8063b88d4fde1461055a578063c87b56dd14610583578063d5abeb01146105c0576101b7565b806395652cfa116100c657806395652cfa146104c157806395d89b41146104ea578063a0712d6814610515578063a22cb46514610531576101b7565b8063715018a61461045457806385d178f41461046b5780638da5cb5b14610496576101b7565b80632373ac221161015957806342842e0e1161013357806342842e0e14610386578063453c2310146103af5780636352211e146103da57806370a0823114610417576101b7565b80632373ac221461031d57806323b872dd146103465780633ccfd60b1461036f576101b7565b8063081812fc11610195578063081812fc1461024f578063095ea7b31461028c5780631675f455146102b557806318160ddd146102f2576101b7565b80630116bc2d146101bc57806301ffc9a7146101e757806306fdde0314610224575b600080fd5b3480156101c857600080fd5b506101d16106b9565b6040516101de9190612234565b60405180910390f35b3480156101f357600080fd5b5061020e600480360381019061020991906122bb565b6106cc565b60405161021b9190612234565b60405180910390f35b34801561023057600080fd5b506102396107ae565b6040516102469190612378565b60405180910390f35b34801561025b57600080fd5b50610276600480360381019061027191906123d0565b610840565b604051610283919061243e565b60405180910390f35b34801561029857600080fd5b506102b360048036038101906102ae9190612485565b610886565b005b3480156102c157600080fd5b506102dc60048036038101906102d791906123d0565b61099d565b6040516102e99190612378565b60405180910390f35b3480156102fe57600080fd5b50610307610a19565b60405161031491906124d4565b60405180910390f35b34801561032957600080fd5b50610344600480360381019061033f919061251b565b610a1f565b005b34801561035257600080fd5b5061036d60048036038101906103689190612548565b610a44565b005b34801561037b57600080fd5b50610384610aa4565b005b34801561039257600080fd5b506103ad60048036038101906103a89190612548565b610b7d565b005b3480156103bb57600080fd5b506103c4610b9d565b6040516103d191906124d4565b60405180910390f35b3480156103e657600080fd5b5061040160048036038101906103fc91906123d0565b610ba3565b60405161040e919061243e565b60405180910390f35b34801561042357600080fd5b5061043e6004803603810190610439919061259b565b610c29565b60405161044b91906124d4565b60405180910390f35b34801561046057600080fd5b50610469610ce0565b005b34801561047757600080fd5b50610480610cf4565b60405161048d91906125e9565b60405180910390f35b3480156104a257600080fd5b506104ab610d1a565b6040516104b8919061243e565b60405180910390f35b3480156104cd57600080fd5b506104e860048036038101906104e39190612669565b610d44565b005b3480156104f657600080fd5b506104ff610d62565b60405161050c9190612378565b60405180910390f35b61052f600480360381019061052a91906123d0565b610df4565b005b34801561053d57600080fd5b50610558600480360381019061055391906126b6565b610fcc565b005b34801561056657600080fd5b50610581600480360381019061057c9190612826565b610fe2565b005b34801561058f57600080fd5b506105aa60048036038101906105a591906123d0565b611044565b6040516105b79190612378565b60405180910390f35b3480156105cc57600080fd5b506105d56110ac565b6040516105e291906124d4565b60405180910390f35b3480156105f757600080fd5b506106006110b2565b60405161060d91906124d4565b60405180910390f35b34801561062257600080fd5b5061063d600480360381019061063891906128a9565b6110b8565b60405161064a9190612234565b60405180910390f35b34801561065f57600080fd5b5061067a6004803603810190610675919061259b565b61114c565b60405161068791906124d4565b60405180910390f35b34801561069c57600080fd5b506106b760048036038101906106b2919061259b565b611164565b005b600b60009054906101000a900460ff1681565b60007f80ac58cd000000000000000000000000000000000000000000000000000000007bffffffffffffffffffffffffffffffffffffffffffffffffffffffff1916827bffffffffffffffffffffffffffffffffffffffffffffffffffffffff1916148061079757507f5b5e139f000000000000000000000000000000000000000000000000000000007bffffffffffffffffffffffffffffffffffffffffffffffffffffffff1916827bffffffffffffffffffffffffffffffffffffffffffffffffffffffff1916145b806107a757506107a6826111e7565b5b9050919050565b6060600080546107bd90612918565b80601f01602080910402602001604051908101604052809291908181526020018280546107e990612918565b80156108365780601f1061080b57610100808354040283529160200191610836565b820191906000526020600020905b81548152906001019060200180831161081957829003601f168201915b5050505050905090565b600061084b82611251565b6004600083815260200190815260200160002060009054906101000a900473ffffffffffffffffffffffffffffffffffffffff169050919050565b600061089182610ba3565b90508073ffffffffffffffffffffffffffffffffffffffff168373ffffffffffffffffffffffffffffffffffffffff1603610901576040517f08c379a00000000000000000000000000000000000000000000000000000000081526004016108f8906129bb565b60405180910390fd5b8073ffffffffffffffffffffffffffffffffffffffff1661092061129c565b73ffffffffffffffffffffffffffffffffffffffff16148061094f575061094e8161094961129c565b6110b8565b5b61098e576040517f08c379a000000000000000000000000000000000000000000000000000000000815260040161098590612a4d565b60405180910390fd5b61099883836112a4565b505050565b60606109a88261135d565b6109e7576040517f08c379a00000000000000000000000000000000000000000000000000000000081526004016109de90612ab9565b60405180910390fd5b600c6109f28361139e565b604051602001610a03929190612bf9565b6040516020818303038152906040529050919050565b60085481565b610a2761146c565b80600b60006101000a81548160ff02191690831515021790555050565b610a55610a4f61129c565b826114ea565b610a94576040517f08c379a0000000000000000000000000000000000000000000000000000000008152600401610a8b90612c9a565b60405180910390fd5b610a9f83838361157f565b505050565b610aac61146c565b6000600d60009054906101000a900473ffffffffffffffffffffffffffffffffffffffff1673ffffffffffffffffffffffffffffffffffffffff1647604051610af490612ceb565b60006040518083038185875af1925050503d8060008114610b31576040519150601f19603f3d011682016040523d82523d6000602084013e610b36565b606091505b5050905080610b7a576040517f08c379a0000000000000000000000000000000000000000000000000000000008152600401610b7190612d4c565b60405180910390fd5b50565b610b9883838360405180602001604052806000815250610fe2565b505050565b600a5481565b600080610baf83611878565b9050600073ffffffffffffffffffffffffffffffffffffffff168173ffffffffffffffffffffffffffffffffffffffff1603610c20576040517f08c379a0000000000000000000000000000000000000000000000000000000008152600401610c1790612db8565b60405180910390fd5b80915050919050565b60008073ffffffffffffffffffffffffffffffffffffffff168273ffffffffffffffffffffffffffffffffffffffff1603610c99576040517f08c379a0000000000000000000000000000000000000000000000000000000008152600401610c9090612e4a565b60405180910390fd5b600360008373ffffffffffffffffffffffffffffffffffffffff1673ffffffffffffffffffffffffffffffffffffffff168152602001908152602001600020549050919050565b610ce861146c565b610cf260006118b5565b565b600d60009054906101000a900473ffffffffffffffffffffffffffffffffffffffff1681565b6000600660009054906101000a900473ffffffffffffffffffffffffffffffffffffffff16905090565b610d4c61146c565b8181600c9182610d5d92919061300c565b505050565b606060018054610d7190612918565b80601f0160208091040260200160405190810160405280929190818152602001828054610d9d90612918565b8015610dea5780601f10610dbf57610100808354040283529160200191610dea565b820191906000526020600020905b815481529060010190602001808311610dcd57829003601f168201915b5050505050905090565b600b60009054906101000a900460ff16610e43576040517f08c379a0000000000000000000000000000000000000000000000000000000008152600401610e3a90613128565b60405180910390fd5b80600754610e519190613177565b341015610e93576040517f08c379a0000000000000000000000000000000000000000000000000000000008152600401610e8a90613205565b60405180910390fd5b60095481600854610ea49190613225565b1115610ee5576040517f08c379a0000000000000000000000000000000000000000000000000000000008152600401610edc906132a5565b60405180910390fd5b600a5481600e60003373ffffffffffffffffffffffffffffffffffffffff1673ffffffffffffffffffffffffffffffffffffffff16815260200190815260200160002054610f339190613225565b1115610f74576040517f08c379a0000000000000000000000000000000000000000000000000000000008152600401610f6b90613311565b60405180910390fd5b60005b81811015610fc85760006001600854610f909190613225565b905060086000815480929190610fa590613331565b9190505550610fb4338261197b565b508080610fc090613331565b915050610f77565b5050565b610fde610fd761129c565b8383611999565b5050565b610ff3610fed61129c565b836114ea565b611032576040517f08c379a000000000000000000000000000000000000000000000000000000000815260040161102990612c9a565b60405180910390fd5b61103e84848484611b05565b50505050565b606061104f82611251565b6000611059611b61565b9050600081511161107957604051806020016040528060008152506110a4565b806110838461139e565b604051602001611094929190613379565b6040516020818303038152906040525b915050919050565b60095481565b60075481565b6000600560008473ffffffffffffffffffffffffffffffffffffffff1673ffffffffffffffffffffffffffffffffffffffff16815260200190815260200160002060008373ffffffffffffffffffffffffffffffffffffffff1673ffffffffffffffffffffffffffffffffffffffff16815260200190815260200160002060009054906101000a900460ff16905092915050565b600e6020528060005260406000206000915090505481565b61116c61146c565b600073ffffffffffffffffffffffffffffffffffffffff168173ffffffffffffffffffffffffffffffffffffffff16036111db576040517f08c379a00000000000000000000000000000000000000000000000000000000081526004016111d29061340f565b60405180910390fd5b6111e4816118b5565b50565b60007f01ffc9a7000000000000000000000000000000000000000000000000000000007bffffffffffffffffffffffffffffffffffffffffffffffffffffffff1916827bffffffffffffffffffffffffffffffffffffffffffffffffffffffff1916149050919050565b61125a8161135d565b611299576040517f08c379a000000000000000000000000000000000000000000000000000000000815260040161129090612db8565b60405180910390fd5b50565b600033905090565b816004600083815260200190815260200160002060006101000a81548173ffffffffffffffffffffffffffffffffffffffff021916908373ffffffffffffffffffffffffffffffffffffffff160217905550808273ffffffffffffffffffffffffffffffffffffffff1661131783610ba3565b73ffffffffffffffffffffffffffffffffffffffff167f8c5be1e5ebec7d5bd14f71427d1e84f3dd0314c0f7b2291e5b200ac8c7c3b92560405160405180910390a45050565b60008073ffffffffffffffffffffffffffffffffffffffff1661137f83611878565b73ffffffffffffffffffffffffffffffffffffffff1614159050919050565b6060600060016113ad84611b78565b01905060008167ffffffffffffffff8111156113cc576113cb6126fb565b5b6040519080825280601f01601f1916602001820160405280156113fe5781602001600182028036833780820191505090505b509050600082602001820190505b600115611461578080600190039150507f3031323334353637383961626364656600000000000000000000000000000000600a86061a8153600a85816114555761145461342f565b5b0494506000850361140c575b819350505050919050565b61147461129c565b73ffffffffffffffffffffffffffffffffffffffff16611492610d1a565b73ffffffffffffffffffffffffffffffffffffffff16146114e8576040517f08c379a00000000000000000000000000000000000000000000000000000000081526004016114df906134aa565b60405180910390fd5b565b6000806114f683610ba3565b90508073ffffffffffffffffffffffffffffffffffffffff168473ffffffffffffffffffffffffffffffffffffffff161480611538575061153781856110b8565b5b8061157657508373ffffffffffffffffffffffffffffffffffffffff1661155e84610840565b73ffffffffffffffffffffffffffffffffffffffff16145b91505092915050565b8273ffffffffffffffffffffffffffffffffffffffff1661159f82610ba3565b73ffffffffffffffffffffffffffffffffffffffff16146115f5576040517f08c379a00000000000000000000000000000000000000000000000000000000081526004016115ec9061353c565b60405180910390fd5b600073ffffffffffffffffffffffffffffffffffffffff168273ffffffffffffffffffffffffffffffffffffffff1603611664576040517f08c379a000000000000000000000000000000000000000000000000000000000815260040161165b906135ce565b60405180910390fd5b6116718383836001611ccb565b8273ffffffffffffffffffffffffffffffffffffffff1661169182610ba3565b73ffffffffffffffffffffffffffffffffffffffff16146116e7576040517f08c379a00000000000000000000000000000000000000000000000000000000081526004016116de9061353c565b60405180910390fd5b6004600082815260200190815260200160002060006101000a81549073ffffffffffffffffffffffffffffffffffffffff02191690556001600360008573ffffffffffffffffffffffffffffffffffffffff1673ffffffffffffffffffffffffffffffffffffffff168152602001908152602001600020600082825403925050819055506001600360008473ffffffffffffffffffffffffffffffffffffffff1673ffffffffffffffffffffffffffffffffffffffff16815260200190815260200160002060008282540192505081905550816002600083815260200190815260200160002060006101000a81548173ffffffffffffffffffffffffffffffffffffffff021916908373ffffffffffffffffffffffffffffffffffffffff160217905550808273ffffffffffffffffffffffffffffffffffffffff168473ffffffffffffffffffffffffffffffffffffffff167fddf252ad1be2c89b69c2b068fc378daa952ba7f163c4a11628f55a4df523b3ef60405160405180910390a46118738383836001611df1565b505050565b60006002600083815260200190815260200160002060009054906101000a900473ffffffffffffffffffffffffffffffffffffffff169050919050565b6000600660009054906101000a900473ffffffffffffffffffffffffffffffffffffffff16905081600660006101000a81548173ffffffffffffffffffffffffffffffffffffffff021916908373ffffffffffffffffffffffffffffffffffffffff1602179055508173ffffffffffffffffffffffffffffffffffffffff168173ffffffffffffffffffffffffffffffffffffffff167f8be0079c531659141344cd1fd0a4f28419497f9722a3daafe3b4186f6b6457e060405160405180910390a35050565b611995828260405180602001604052806000815250611df7565b5050565b8173ffffffffffffffffffffffffffffffffffffffff168373ffffffffffffffffffffffffffffffffffffffff1603611a07576040517f08c379a00000000000000000000000000000000000000000000000000000000081526004016119fe9061363a565b60405180910390fd5b80600560008573ffffffffffffffffffffffffffffffffffffffff1673ffffffffffffffffffffffffffffffffffffffff16815260200190815260200160002060008473ffffffffffffffffffffffffffffffffffffffff1673ffffffffffffffffffffffffffffffffffffffff16815260200190815260200160002060006101000a81548160ff0219169083151502179055508173ffffffffffffffffffffffffffffffffffffffff168373ffffffffffffffffffffffffffffffffffffffff167f17307eab39ab6107e8899845ad3d59bd9653f200f220920489ca2b5937696c3183604051611af89190612234565b60405180910390a3505050565b611b1084848461157f565b611b1c84848484611e52565b611b5b576040517f08c379a0000000000000000000000000000000000000000000000000000000008152600401611b52906136cc565b60405180910390fd5b50505050565b606060405180602001604052806000815250905090565b600080600090507a184f03e93ff9f4daa797ed6e38ed64bf6a1f0100000000000000008310611bd6577a184f03e93ff9f4daa797ed6e38ed64bf6a1f0100000000000000008381611bcc57611bcb61342f565b5b0492506040810190505b6d04ee2d6d415b85acef81000000008310611c13576d04ee2d6d415b85acef81000000008381611c0957611c0861342f565b5b0492506020810190505b662386f26fc100008310611c4257662386f26fc100008381611c3857611c3761342f565b5b0492506010810190505b6305f5e1008310611c6b576305f5e1008381611c6157611c6061342f565b5b0492506008810190505b6127108310611c90576127108381611c8657611c8561342f565b5b0492506004810190505b60648310611cb35760648381611ca957611ca861342f565b5b0492506002810190505b600a8310611cc2576001810190505b80915050919050565b6001811115611deb57600073ffffffffffffffffffffffffffffffffffffffff168473ffffffffffffffffffffffffffffffffffffffff1614611d5f5780600360008673ffffffffffffffffffffffffffffffffffffffff1673ffffffffffffffffffffffffffffffffffffffff1681526020019081526020016000206000828254611d5791906136ec565b925050819055505b600073ffffffffffffffffffffffffffffffffffffffff168373ffffffffffffffffffffffffffffffffffffffff1614611dea5780600360008573ffffffffffffffffffffffffffffffffffffffff1673ffffffffffffffffffffffffffffffffffffffff1681526020019081526020016000206000828254611de29190613225565b925050819055505b5b50505050565b50505050565b611e018383611fd9565b611e0e6000848484611e52565b611e4d576040517f08c379a0000000000000000000000000000000000000000000000000000000008152600401611e44906136cc565b60405180910390fd5b505050565b6000611e738473ffffffffffffffffffffffffffffffffffffffff166121f6565b15611fcc578373ffffffffffffffffffffffffffffffffffffffff1663150b7a02611e9c61129c565b8786866040518563ffffffff1660e01b8152600401611ebe9493929190613775565b6020604051808303816000875af1925050508015611efa57506040513d601f19601f82011682018060405250810190611ef791906137d6565b60015b611f7c573d8060008114611f2a576040519150601f19603f3d011682016040523d82523d6000602084013e611f2f565b606091505b506000815103611f74576040517f08c379a0000000000000000000000000000000000000000000000000000000008152600401611f6b906136cc565b60405180910390fd5b805181602001fd5b63150b7a0260e01b7bffffffffffffffffffffffffffffffffffffffffffffffffffffffff1916817bffffffffffffffffffffffffffffffffffffffffffffffffffffffff191614915050611fd1565b600190505b949350505050565b600073ffffffffffffffffffffffffffffffffffffffff168273ffffffffffffffffffffffffffffffffffffffff1603612048576040517f08c379a000000000000000000000000000000000000000000000000000000000815260040161203f9061384f565b60405180910390fd5b6120518161135d565b15612091576040517f08c379a0000000000000000000000000000000000000000000000000000000008152600401612088906138bb565b60405180910390fd5b61209f600083836001611ccb565b6120a88161135d565b156120e8576040517f08c379a00000000000000000000000000000000000000000000000000000000081526004016120df906138bb565b60405180910390fd5b6001600360008473ffffffffffffffffffffffffffffffffffffffff1673ffffffffffffffffffffffffffffffffffffffff16815260200190815260200160002060008282540192505081905550816002600083815260200190815260200160002060006101000a81548173ffffffffffffffffffffffffffffffffffffffff021916908373ffffffffffffffffffffffffffffffffffffffff160217905550808273ffffffffffffffffffffffffffffffffffffffff16600073ffffffffffffffffffffffffffffffffffffffff167fddf252ad1be2c89b69c2b068fc378daa952ba7f163c4a11628f55a4df523b3ef60405160405180910390a46121f2600083836001611df1565b5050565b6000808273ffffffffffffffffffffffffffffffffffffffff163b119050919050565b60008115159050919050565b61222e81612219565b82525050565b60006020820190506122496000830184612225565b92915050565b6000604051905090565b600080fd5b600080fd5b60007fffffffff0000000000000000000000000000000000000000000000000000000082169050919050565b61229881612263565b81146122a357600080fd5b50565b6000813590506122b58161228f565b92915050565b6000602082840312156122d1576122d0612259565b5b60006122df848285016122a6565b91505092915050565b600081519050919050565b600082825260208201905092915050565b60005b83811015612322578082015181840152602081019050612307565b60008484015250505050565b6000601f19601f8301169050919050565b600061234a826122e8565b61235481856122f3565b9350612364818560208601612304565b61236d8161232e565b840191505092915050565b60006020820190508181036000830152612392818461233f565b905092915050565b6000819050919050565b6123ad8161239a565b81146123b857600080fd5b50565b6000813590506123ca816123a4565b92915050565b6000602082840312156123e6576123e5612259565b5b60006123f4848285016123bb565b91505092915050565b600073ffffffffffffffffffffffffffffffffffffffff82169050919050565b6000612428826123fd565b9050919050565b6124388161241d565b82525050565b6000602082019050612453600083018461242f565b92915050565b6124628161241d565b811461246d57600080fd5b50565b60008135905061247f81612459565b92915050565b6000806040838503121561249c5761249b612259565b5b60006124aa85828601612470565b92505060206124bb858286016123bb565b9150509250929050565b6124ce8161239a565b82525050565b60006020820190506124e960008301846124c5565b92915050565b6124f881612219565b811461250357600080fd5b50565b600081359050612515816124ef565b92915050565b60006020828403121561253157612530612259565b5b600061253f84828501612506565b91505092915050565b60008060006060848603121561256157612560612259565b5b600061256f86828701612470565b935050602061258086828701612470565b9250506040612591868287016123bb565b9150509250925092565b6000602082840312156125b1576125b0612259565b5b60006125bf84828501612470565b91505092915050565b60006125d3826123fd565b9050919050565b6125e3816125c8565b82525050565b60006020820190506125fe60008301846125da565b92915050565b600080fd5b600080fd5b600080fd5b60008083601f84011261262957612628612604565b5b8235905067ffffffffffffffff81111561264657612645612609565b5b6020830191508360018202830111156126625761266161260e565b5b9250929050565b600080602083850312156126805761267f612259565b5b600083013567ffffffffffffffff81111561269e5761269d61225e565b5b6126aa85828601612613565b92509250509250929050565b600080604083850312156126cd576126cc612259565b5b60006126db85828601612470565b92505060206126ec85828601612506565b9150509250929050565b600080fd5b7f4e487b7100000000000000000000000000000000000000000000000000000000600052604160045260246000fd5b6127338261232e565b810181811067ffffffffffffffff82111715612752576127516126fb565b5b80604052505050565b600061276561224f565b9050612771828261272a565b919050565b600067ffffffffffffffff821115612791576127906126fb565b5b61279a8261232e565b9050602081019050919050565b82818337600083830152505050565b60006127c96127c484612776565b61275b565b9050828152602081018484840111156127e5576127e46126f6565b5b6127f08482856127a7565b509392505050565b600082601f83011261280d5761280c612604565b5b813561281d8482602086016127b6565b91505092915050565b600080600080608085870312156128405761283f612259565b5b600061284e87828801612470565b945050602061285f87828801612470565b9350506040612870878288016123bb565b925050606085013567ffffffffffffffff8111156128915761289061225e565b5b61289d878288016127f8565b91505092959194509250565b600080604083850312156128c0576128bf612259565b5b60006128ce85828601612470565b92505060206128df85828601612470565b9150509250929050565b7f4e487b7100000000000000000000000000000000000000000000000000000000600052602260045260246000fd5b6000600282049050600182168061293057607f821691505b602082108103612943576129426128e9565b5b50919050565b7f4552433732313a20617070726f76616c20746f2063757272656e74206f776e6560008201527f7200000000000000000000000000000000000000000000000000000000000000602082015250565b60006129a56021836122f3565b91506129b082612949565b604082019050919050565b600060208201905081810360008301526129d481612998565b9050919050565b7f4552433732313a20617070726f76652063616c6c6572206973206e6f7420746f60008201527f6b656e206f776e6572206f7220617070726f76656420666f7220616c6c000000602082015250565b6000612a37603d836122f3565b9150612a42826129db565b604082019050919050565b60006020820190508181036000830152612a6681612a2a565b9050919050565b7f546f6b656e20646f6573206e6f74206578697374000000000000000000000000600082015250565b6000612aa36014836122f3565b9150612aae82612a6d565b602082019050919050565b60006020820190508181036000830152612ad281612a96565b9050919050565b600081905092915050565b60008190508160005260206000209050919050565b60008154612b0681612918565b612b108186612ad9565b94506001821660008114612b2b5760018114612b4057612b73565b60ff1983168652811515820286019350612b73565b612b4985612ae4565b60005b83811015612b6b57815481890152600182019150602081019050612b4c565b838801955050505b50505092915050565b6000612b87826122e8565b612b918185612ad9565b9350612ba1818560208601612304565b80840191505092915050565b7f2e6a736f6e000000000000000000000000000000000000000000000000000000600082015250565b6000612be3600583612ad9565b9150612bee82612bad565b600582019050919050565b6000612c058285612af9565b9150612c118284612b7c565b9150612c1c82612bd6565b91508190509392505050565b7f4552433732313a2063616c6c6572206973206e6f7420746f6b656e206f776e6560008201527f72206f7220617070726f76656400000000000000000000000000000000000000602082015250565b6000612c84602d836122f3565b9150612c8f82612c28565b604082019050919050565b60006020820190508181036000830152612cb381612c77565b9050919050565b600081905092915050565b50565b6000612cd5600083612cba565b9150612ce082612cc5565b600082019050919050565b6000612cf682612cc8565b9150819050919050565b7f5769746864726177206661696c65640000000000000000000000000000000000600082015250565b6000612d36600f836122f3565b9150612d4182612d00565b602082019050919050565b60006020820190508181036000830152612d6581612d29565b9050919050565b7f4552433732313a20696e76616c696420746f6b656e2049440000000000000000600082015250565b6000612da26018836122f3565b9150612dad82612d6c565b602082019050919050565b60006020820190508181036000830152612dd181612d95565b9050919050565b7f4552433732313a2061646472657373207a65726f206973206e6f74206120766160008201527f6c6964206f776e65720000000000000000000000000000000000000000000000602082015250565b6000612e346029836122f3565b9150612e3f82612dd8565b604082019050919050565b60006020820190508181036000830152612e6381612e27565b9050919050565b600082905092915050565b60006020601f8301049050919050565b600082821b905092915050565b600060088302612ec27fffffffffffffffffffffffffffffffffffffffffffffffffffffffffffffffff82612e85565b612ecc8683612e85565b95508019841693508086168417925050509392505050565b6000819050919050565b6000612f09612f04612eff8461239a565b612ee4565b61239a565b9050919050565b6000819050919050565b612f2383612eee565b612f37612f2f82612f10565b848454612e92565b825550505050565b600090565b612f4c612f3f565b612f57818484612f1a565b505050565b5b81811015612f7b57612f70600082612f44565b600181019050612f5d565b5050565b601f821115612fc057612f9181612ae4565b612f9a84612e75565b81016020851015612fa9578190505b612fbd612fb585612e75565b830182612f5c565b50505b505050565b600082821c905092915050565b6000612fe360001984600802612fc5565b1980831691505092915050565b6000612ffc8383612fd2565b9150826002028217905092915050565b6130168383612e6a565b67ffffffffffffffff81111561302f5761302e6126fb565b5b6130398254612918565b613044828285612f7f565b6000601f8311600181146130735760008415613061578287013590505b61306b8582612ff0565b8655506130d3565b601f19841661308186612ae4565b60005b828110156130a957848901358255600182019150602085019450602081019050613084565b868310156130c657848901356130c2601f891682612fd2565b8355505b6001600288020188555050505b50505050505050565b7f5075626c6963206d696e74696e67206973206e6f7420656e61626c6564000000600082015250565b6000613112601d836122f3565b915061311d826130dc565b602082019050919050565b6000602082019050818103600083015261314181613105565b9050919050565b7f4e487b7100000000000000000000000000000000000000000000000000000000600052601160045260246000fd5b60006131828261239a565b915061318d8361239a565b925082820261319b8161239a565b915082820484148315176131b2576131b1613148565b5b5092915050565b7f496e73756666696369656e742066756e64730000000000000000000000000000600082015250565b60006131ef6012836122f3565b91506131fa826131b9565b602082019050919050565b6000602082019050818103600083015261321e816131e2565b9050919050565b60006132308261239a565b915061323b8361239a565b925082820190508082111561325357613252613148565b5b92915050565b7f4d617820737570706c7920726561636865640000000000000000000000000000600082015250565b600061328f6012836122f3565b915061329a82613259565b602082019050919050565b600060208201905081810360008301526132be81613282565b9050919050565b7f4d6178207065722077616c6c6574207265616368656400000000000000000000600082015250565b60006132fb6016836122f3565b9150613306826132c5565b602082019050919050565b6000602082019050818103600083015261332a816132ee565b9050919050565b600061333c8261239a565b91507fffffffffffffffffffffffffffffffffffffffffffffffffffffffffffffffff820361336e5761336d613148565b5b600182019050919050565b60006133858285612b7c565b91506133918284612b7c565b91508190509392505050565b7f4f776e61626c653a206e6577206f776e657220697320746865207a65726f206160008201527f6464726573730000000000000000000000000000000000000000000000000000602082015250565b60006133f96026836122f3565b91506134048261339d565b604082019050919050565b60006020820190508181036000830152613428816133ec565b9050919050565b7f4e487b7100000000000000000000000000000000000000000000000000000000600052601260045260246000fd5b7f4f776e61626c653a2063616c6c6572206973206e6f7420746865206f776e6572600082015250565b60006134946020836122f3565b915061349f8261345e565b602082019050919050565b600060208201905081810360008301526134c381613487565b9050919050565b7f4552433732313a207472616e736665722066726f6d20696e636f72726563742060008201527f6f776e6572000000000000000000000000000000000000000000000000000000602082015250565b60006135266025836122f3565b9150613531826134ca565b604082019050919050565b6000602082019050818103600083015261355581613519565b9050919050565b7f4552433732313a207472616e7366657220746f20746865207a65726f2061646460008201527f7265737300000000000000000000000000000000000000000000000000000000602082015250565b60006135b86024836122f3565b91506135c38261355c565b604082019050919050565b600060208201905081810360008301526135e7816135ab565b9050919050565b7f4552433732313a20617070726f766520746f2063616c6c657200000000000000600082015250565b60006136246019836122f3565b915061362f826135ee565b602082019050919050565b6000602082019050818103600083015261365381613617565b9050919050565b7f4552433732313a207472616e7366657220746f206e6f6e20455243373231526560008201527f63656976657220696d706c656d656e7465720000000000000000000000000000602082015250565b60006136b66032836122f3565b91506136c18261365a565b604082019050919050565b600060208201905081810360008301526136e5816136a9565b9050919050565b60006136f78261239a565b91506137028361239a565b925082820390508181111561371a57613719613148565b5b92915050565b600081519050919050565b600082825260208201905092915050565b600061374782613720565b613751818561372b565b9350613761818560208601612304565b61376a8161232e565b840191505092915050565b600060808201905061378a600083018761242f565b613797602083018661242f565b6137a460408301856124c5565b81810360608301526137b6818461373c565b905095945050505050565b6000815190506137d08161228f565b92915050565b6000602082840312156137ec576137eb612259565b5b60006137fa848285016137c1565b91505092915050565b7f4552433732313a206d696e7420746f20746865207a65726f2061646472657373600082015250565b60006138396020836122f3565b915061384482613803565b602082019050919050565b600060208201905081810360008301526138688161382c565b9050919050565b7f4552433732313a20746f6b656e20616c7265616479206d696e74656400000000600082015250565b60006138a5601c836122f3565b91506138b08261386f565b602082019050919050565b600060208201905081810360008301526138d481613898565b905091905056fea2646970667358221220bbb8f58da504a2bb93b47853e44046200b3a63ee7b7046017f2eb78090265d4664736f6c63430008110033",
    "linkReferences": {},
    "deployedLinkReferences": {}
}